:100000000FC031C030C02FC02EC037C12CC02BC094
:100010002AC029C028C027C026C025C024C0DE02AF
:1000200011241FBECFEDCDBF10E0A0E6B0E0EAE79F
:10003000F7E002C005900D92A036B107D9F720E095
:10004000A0E6B0E001C01D92AD37B207E1F710E0C5
:10005000C0E1D0E003C02197FE0187D3CF30D107A4
:10006000D1F755D188C3CCCF863008F08650877041
:1000700087B9369A3699FECF84B125B190E0922B9C
:1000800008952FB7F8946091650070916600809193
:100090006700909168002FBF0895C098C298C19AD8
:1000A0000895CF92DF92EF92FF926C01EADF0D2C60
:1000B000000CEE08FF08C60ED71EE81EF91EE1DF91
:1000C0006C157D058E059F05D0F3FF90EF90DF90B6
:1000D000CF900895CF92DF92EF92FF92CF93DF936C
:1000E000CDB7DD27C750CDBF29833A834B835C83CF
:1000F0006D837E83C980DA80E12CF12C6D817E8155
:10010000CB01A0E0B0E0BC01CD016C197D098E09E6
:100110009F0924E630E040E050E08DD2B22FA32FBB
:10012000F42FE52F2B813C81A90160E070E09A015A
:10013000AB012C193D094E095F096B2F7A2F8F2FC8
:100140009E2F5DD257FD07C025363105410551056B
:1001500024F4822F03C080E001C084E6C95FCDBFD4
:10016000DF91CF91FF90EF90DF90CF900895CF93E4
:10017000DF9383E079DF83E077DFC6E7D0E0682FA5
:100180008C839D8320917600309177004091780098
:100190005091790070917B0080917C009BDF8E8371
:1001A00084E062DF84E060DFCFE6D0E0682F8C83FC
:1001B0009D8320916F0030917000409171005091AB
:1001C0007200709174008091750084DF8E83DF91DE
:1001D000CF9108951F93CF93DF93C82FD0E0CE0126
:1001E000F8D1182FCE010196F4D1282F30E0922FAC
:1001F0008827810F911DDF91CF911F910895EF9274
:10020000FF920F931F93CF93DF931F92CDB7DD27FC
:100210007C01FC0100811181C8016983DAD1698107
:10022000681711F0C801DDD1C7010F90DF91CF91A0
:100230001F910F91FF90EF9008950F931F93CF930D
:10024000DF93CDB7DD27C350CDBF082F10E01A8351
:100250000983CE0101967B83D2DF0F5F1F4F1A8384
:1002600009837B81672FCE010196C9DFCD5FCDBFAA
:10027000DF91CF911F910F9108951F920F920FB6AA
:100280000F9211242F933F938F939F93AF93BF931C
:100290008091650090916600A0916700B091680020
:1002A0003091640020E3230F2D3720F44096A11DE8
:1002B000B11D05C023EB230F4196A11DB11D209355
:1002C00064008093650090936600A0936700B093EC
:1002D00068008091600090916100A0916200B091EF
:1002E00063000196A11DB11D809360009093610091
:1002F000A0936200B0936300BF91AF919F918F91E3
:100300003F912F910F900FBE0F901F901895CF9394
:10031000DF9300D0CDB7DD2778948AB582608ABD9F
:100320008AB581608ABD83B7826083BF83B78160ED
:1003300083BF89B7826089BF80B7826080BF3298EF
:10034000319A309A379A8CB580648CBD14B714BE3C
:10035000B89ABA9AB99AC29AC19AC19AC39AC49AD7
:10036000BB98BC9885E090E034D1082F45E0E42E9E
:10037000F12CFA82E982612FCE01019640DF1270E2
:1003800001FDA3C0112309F4A8C02AE0D22E0FEF6B
:1003900013E0EE24EA9433E0F32EC298C19884E689
:1003A00090E07FDEC29AC19A6CDE4B015C012CEBBF
:1003B000820E22E0921EA11CB11C63DE6815790535
:1003C0008A059B0590F4D3DE80917A0090917B00A2
:1003D0008E159F0508F47C01809173009091740044
:1003E0008017910750F78C01E8CFDA94D110D5CF60
:1003F000470184E6880E911C580124E6A20EB11C28
:1004000080917A0090917B008815990560F4C298DC
:10041000C19884E690E045DEC29AC19A8CED95E0E1
:1004200040DEA5DEEDCF80917300909174008A15B7
:100430009B0568F3C298C19880ED97E032DE9AE0A0
:10044000D92EA12CB12C812C912CC298C19819DEE7
:100450002B013C012CEB420E22E0521E611C711C50
:1004600010DE641575058605970590F480DE809191
:100470007A0090917B008816990608F44C018091CF
:10048000730090917400A816B90650F75C01E8CF8C
:10049000C29AC19A84E690E004DEDA94D110D5CFF6
:1004A000C298C198B70187E0C8DEB40189E0C5DE13
:1004B000B8018BE0C2DEB5018DE0BFDEC29AC19A01
:1004C00085E090E09A83898304C0112331F0FA8299
:1004D000E98261E0CE01019692DE10926E00DDDDD0
:1004E00010926D0087E076DE90937700809376001F
:1004F00089E070DE90937900809378008BE06ADE6B
:100500009093700080936F008DE064DE9093720092
:100510008093710080E0E82E80E0F82E28DE809144
:100520007C0090917500891B282F082E000C330B3E
:1005300037FF03C031952195310900916E001816DF
:1005400024F0811104C0102F03C010E001C011E09D
:1005500022303105DCF080916D00181315C08090B9
:10056000690090906A00A0906B00B0906C008AE0E7
:10057000880E911CA11CB11C84DD86169706A80666
:10058000B90668F4012F0BC010936D007ADD6093FB
:10059000690070936A0080936B0090936C000093E5
:1005A0006E00011102C079DD03C0C09AC29AC198E1
:1005B000E114F10409F4B2CF23DDB0CFE6E7F0E0B7
:1005C000158214821682EFE6F0E0158214821682FC
:1005D0000895E199FECF1FBA8EBBE09A99278DB39B
:1005E0000895262FE199FECF1CBA1FBA8EBB2DBBF2
:1005F0000FB6F894E29AE19A0FBE01960895052E7F
:1006000097FB16F400940FD057FD05D05ED007FC81
:1006100002D046F408C050954095309521953F4F43
:100620004F4F5F4F089590958095709561957F4FDE
:100630008F4F9F4F089568940013E894A0E0B0E0B6
:10064000E3E2F3E01DC0EFEFE7F959016A015E2331
:10065000550FEE08FE2C87019B01AC019E23990FDC
:10066000660B762FCB0153D0CDB7DD27EAE01FC054
:100670002F923F924F925F926F927F928F929F92B2
:10068000AF92BF92CF92DF92EF92FF920F931F93A0
:10069000CF93DF93CDB7CA1BCDBFDD2709942A883E
:1006A000398848885F846E847D848C849B84AA8486
:1006B000B984C884DF80EE80FD800C811B81AA8113
:1006C000D981CE0FCDBFCA2F0895A1E21A2EAA1B41
:1006D000BB1BFD010DC0AA1FBB1FEE1FFF1FA217F2
:1006E000B307E407F50720F0A21BB30BE40BF50BEF
:1006F000661F771F881F991F1A9469F76095709578
:10070000809590959B01AC01BD01CF010895DF93C9
:10071000CF939F92A0E49A2E0024D001E001F00133
:1007200016950795F794E794D794C794B794A79430
:1007300048F41068A20FB31FC41FD51FE61FF71F90
:10074000081E191E220F331F441F551F661F771FD7
:10075000881F991F9A9421F79D01AE01BF01C00126
:1007600011249F90CF91DF910895EE0FFF1F059008
:0A077000F491E02D0994F894FFCFF6
:00000001FF
