:100000000FC031C030C02FC02EC0B6C02CC02BC016
:100010002AC029C028C027C026C025C024C000028D
:1000200011241FBECFEDCDBF20E0A4E6B0E001C09B
:100030001D92A138B207E1F710E0A0E6B0E0EEEBC8
:10004000F5E002C005900D92A436B107D9F710E093
:10005000C0E1D0E003C02197FE01DDD1CF30D10750
:10006000D1F7D4D0AAC2CCCF863008F086508770A2
:1000700087B9369A3699FECF84B125B190E0922B9C
:1000800008952FB7F8946091690070916A0080918B
:100090006B0090916C002FBF0895C098C298C19AD0
:1000A000089580937200811101C0F7CFC09AC29A5F
:1000B000C1980895CF92DF92EF92FF92CF93DF9392
:1000C000CDB7DD27C750CDBF29833A834B835C83EF
:1000D0006D837E83C980DA80E12CF12C6D817E8175
:1000E000CB01A0E0B0E0BC01CD016C197D098E0907
:1000F0009F0924E630E040E050E0C5D1B22FA32FA5
:10010000F42FE52F2B813C81A90160E070E09A017A
:10011000AB012C193D094E095F096B2F7A2F8F2FE8
:100120009E2F95D157FD07C0253631054105510554
:1001300024F4822F03C080E001C084E6C95FCDBFF4
:10014000DF91CF91FF90EF90DF90CF9008951F93B4
:10015000CF93DF93C82FD0E0CE0163D1182FCE010B
:1001600001965FD1282F30E0922F8827810F911DB3
:10017000DF91CF911F9108951F920F920FB60F92AA
:1001800011242F933F938F939F93AF93BF938091AD
:10019000690090916A00A0916B00B0916C00309161
:1001A000680020E3230F2D3720F44096A11DB11DD8
:1001B00005C023EB230F4196A11DB11D20936800BC
:1001C0008093690090936A00A0936B00B0936C00D9
:1001D0008091640090916500A0916600B0916700E5
:1001E0000196A11DB11D8093640090936500A093BA
:1001F0006600B0936700BF91AF919F918F913F913F
:100200002F910F900FBE0F901F90189578948AB57C
:1002100082608ABD8AB581608ABD83B7826083BFF0
:1002200083B7816083BF89B7826089BF80B78260EE
:1002300080BF3298319A309A379A8CB580648CBDE1
:10024000C4B714BEB89ABA9AB99AC29AC19AC19A56
:10025000C39AC49ABB98BC9885E090E0E2D0D82FAE
:1002600085E090E0DED0C81721F06C2F85E090E0AB
:10027000E0D0C270D1FD26C0CC2379F102DF6B0142
:100280007C0128EEC20E23E0D21EE11CF11CF9DE37
:100290006C157D058E059F05D0F310927200FDDE72
:1002A000F0DE6B017C0128EEC20E23E0D21EE11CC1
:1002B000F11CE7DE6C157D058E059F05D0F381E00E
:1002C000F0DEDCCFCC2349F085E090E0AAD081308D
:1002D00021F061E085E090E0ACD010927200DDDEAC
:1002E0001092710087E033DF90937B0080937A0057
:1002F00089E02DDF90937D0080937C008BE027DFE9
:1003000090937400809373008DE021DF90937600CA
:100310008093750000E010E083E0A6DE83E0A4DEB9
:10032000682F80937E0090937F0020917A00309117
:100330007B0040917C0050917D00792F809180005E
:10034000B9DEC82F8093800084E08EDE84E08CDEEE
:10035000682F8093770090937800209173003091FC
:1003600074004091750050917600792F809179004A
:10037000A1DE809379009C2F981B292F092E000C59
:10038000330B37FF03C0319521953109D0917200AD
:10039000191624F0911104C0CD2F03C0C0E001C094
:1003A000C1E022303105DCF080917100C81315C026
:1003B000C0906D00D0906E00E0906F00F0907000E3
:1003C0008AE0C80ED11CE11CF11C5BDEC616D70604
:1003D000E806F90668F4DC2F0BC0C093710051DE0B
:1003E00060936D0070936E0080936F009093700027
:1003F0008D2F57DE0115110509F48ECF01DE8CCF4C
:10040000EAE7F0E0158214821682E3E7F0E0158255
:10041000148216820895EE0FFF1F0590F491E02DCF
:100420000994E199FECF1FBA8EBBE09A99278DB34C
:100430000895262FE199FECF1CBA1FBA8EBB2DBBA3
:100440000FB6F894E29AE19A0FBE01960895052E30
:1004500097FB16F400940FD057FD05D05ED007FC33
:1004600002D046F408C050954095309521953F4FF5
:100470004F4F5F4F089590958095709561957F4F90
:100480008F4F9F4F089568940013E894A0E0B0E068
:10049000EBE4F2E01DC0EFEFE7F959016A015E23DA
:1004A000550FEE08FE2C87019B01AC019E23990F8E
:1004B000660B762FCB0153D0CDB7DD27EAE01FC006
:1004C0002F923F924F925F926F927F928F929F9264
:1004D000AF92BF92CF92DF92EF92FF920F931F9352
:1004E000CF93DF93CDB7CA1BCDBFDD2709942A88F0
:1004F000398848885F846E847D848C849B84AA8438
:10050000B984C884DF80EE80FD800C811B81AA81C4
:10051000D981CE0FCDBFCA2F0895A1E21A2EAA1BF2
:10052000BB1BFD010DC0AA1FBB1FEE1FFF1FA217A3
:10053000B307E407F50720F0A21BB30BE40BF50BA0
:10054000661F771F881F991F1A9469F76095709529
:10055000809590959B01AC01BD01CF010895DF937B
:10056000CF939F92A0E49A2E0024D001E001F001E5
:1005700016950795F794E794D794C794B794A794E2
:1005800048F41068A20FB31FC41FD51FE61FF71F42
:10059000081E191E220F331F441F551F661F771F89
:1005A000881F991F9A9421F79D01AE01BF01C001D8
:0E05B00011249F90CF91DF910895F894FFCF12
:0405BE000100000038
:00000001FF
