:100000000EC026C025C024C023C035C121C020C0D9
:100010001FC01EC01DC01CC01BC01AC019C01124A7
:100020001FBECFEDCDBF10E0A0E6B0E0E2E5F7E007
:1000300002C005900D92A036B107D9F720E0A0E6E6
:10004000B0E001C01D92AE37B207E1F75ED17FC3C9
:10005000D7CF863008F086508770909169009295CE
:10006000907F892B87B9369A3699FECF84B125B116
:1000700090E0922B08952FB7F894609165007091ED
:10008000660080916700909168002FBF0895C09826
:10009000C298C19A0895CF92DF92EF92FF926C01BD
:1000A000EADF0D2C000CEE08FF08C60ED71EE81E76
:1000B000F91EE1DF6C157D058E059F05D0F3FF90DD
:1000C000EF90DF90CF900895CF92DF92EF92FF9262
:1000D000CF93DF93CDB7DD27C750CDBF29833A83B8
:1000E0004B835C836D837E83C980DA800D2C000C8A
:1000F000EE08FF086D817E81CB01770FAA0BBB0B49
:10010000BC01CD016C197D098E099F0924E630E000
:1001100040E050E082D2B22FA32FF42FE52F2B81A5
:100120003C81A901330F660B770B9A01AB012C19A7
:100130003D094E095F096B2F7A2F8F2F9E2F51D2C9
:1001400057FD07C0253631054105510524F4822F9E
:1001500003C080E001C084E6C95FCDBFDF91CF91CD
:10016000FF90EF90DF90CF900895CF93DF9389E0D9
:1001700070DF89E06EDFC7E7D0E0682F8C839D8356
:1001800020917700309178004091790050917A0069
:1001900070917C0080917D0097DF8E8388E059DF2D
:1001A00088E057DFC0E7D0E0682F8C839D832091E3
:1001B0007000309171004091720050917300709105
:1001C00075008091760080DF8E83DF91CF91089556
:1001D0001F93CF93DF93C82FD0E0CE01ECD1182F1F
:1001E000CE010196E8D1282F30E0922F8827810F89
:1001F000911DDF91CF911F910895EF92FF920F9380
:100200001F93CF93DF931F92CDB7DD277C01FC01B5
:1002100000811181C8016983CED16981681711F00D
:10022000C801D1D1C7010F90DF91CF911F910F91DC
:10023000FF90EF9008950F931F93CF93DF93CDB767
:10024000DD27C350CDBF082F10E01A830983CE01EC
:1002500001967B83D2DF0F5F1F4F1A8309837B8157
:10026000672FCE010196C9DFCD5FCDBFDF91CF9162
:100270001F910F9108951F920F920FB60F921124A4
:100280002F933F938F939F93AF93BF93809165007C
:1002900090916600A0916700B09168003091640071
:1002A00020E3230F2D3720F44096A11DB11D05C07A
:1002B00023EB230F4196A11DB11D20936400809371
:1002C000650090936600A0936700B09368008091EA
:1002D000600090916100A0916200B091630001966E
:1002E000A11DB11D8093600090936100A0936200F6
:1002F000B0936300BF91AF919F918F913F912F91E8
:100300000F900FBE0F901F901895CF93DF9300D0E2
:10031000CDB7DD2778948AB582608ABD8AB58160C1
:100320008ABD83B7826083BF83B7816083BF89B78B
:10033000826089BF80B7826080BF3298319A309ADC
:10034000379A8CB580648CBD14B714BE88E0809356
:100350006900B89ABA9AB99AC29AC19A85E090E0AF
:100360002AD1082F45E0E42EF12CFA82E982612F90
:10037000CE01019642DF127001FDA3C0112309F4E2
:10038000A8C02AE0D22E0FEF13E0EE24EA9433E067
:10039000F32EC298C19884E690E07DDEC29AC19A9D
:1003A0006ADE4B015C012CEB820E22E0921EA11C46
:1003B000B11C61DE681579058A059B0590F4D5DED0
:1003C00080917B0090917C008E159F0508F47C0144
:1003D00080917400909175008017910750F78C01FF
:1003E000E8CFDA94D110D5CF47018CE3880E911C69
:1003F00058012CE3A20EB11C80917B0090917C00EF
:100400008815990560F4C298C19884E690E043DEAF
:10041000C29AC19A8CED95E03EDEA7DEEDCF8091C9
:100420007400909175008A159B0568F3C298C19875
:1004300080ED97E030DE9AE0D92EA12CB12C812CF2
:10044000912CC298C19817DE2B013C012CEB420E77
:1004500022E0521E611C711C0EDE641575058605B6
:10046000970590F482DE80917B0090917C00881645
:10047000990608F44C018091740090917500A816BB
:10048000B90650F75C01E8CFC29AC19A84E690E0C1
:1004900002DEDA94D110D5CFC298C198B70187E0B7
:1004A000CADEB40189E0C7DEB8018BE0C4DEB50165
:1004B0008DE0C1DEC29AC19A85E090E09A8389837B
:1004C00004C0112331F0FA82E98261E0CE01019685
:1004D00094DE10926F00DBDD10926E0087E078DE14
:1004E000909378008093770089E072DE90937A0091
:1004F000809379008BE06CDE9093710080937000A4
:100500008DE066DE90937300809372002EDE80E0B3
:10051000E82E80E0F82E29DE80917D009091760013
:10052000891B282F082E000C330B37FF03C0319591
:100530002195310900916F00181624F0811104C033
:10054000102F03C010E001C011E022303105DCF0B3
:1005500080916E00181315C080906A0090906B0017
:10056000A0906C00B0906D008AE0880E911CA11CD8
:10057000B11C81DD86169706A806B90668F4012F1E
:100580000BC010936E0077DD60936A0070936B0070
:1005900080936C0090936D0000936F00011102C076
:1005A00076DD03C0C09AC29AC198E114F10409F43F
:1005B000B2CF26DDB0CFE199FECF1FBA8EBBE09A55
:1005C00099278DB30895262FE199FECF1CBA1FBA43
:1005D0008EBB2DBB0FB6F894E29AE19A0FBE01963E
:1005E0000895052E97FB16F400940FD057FD05D003
:1005F0005ED007FC02D046F408C050954095309577
:1006000021953F4F4F4F5F4F08959095809570957E
:1006100061957F4F8F4F9F4F089568940013E89422
:10062000A0E0B0E0E5E1F3E01DC0EFEFE7F959012C
:100630006A015E23550FEE08FE2C87019B01AC0179
:100640009E23990F660B762FCB0153D0CDB7DD27B4
:10065000EAE01FC02F923F924F925F926F927F927B
:100660008F929F92AF92BF92CF92DF92EF92FF92C2
:100670000F931F93CF93DF93CDB7CA1BCDBFDD2759
:1006800009942A88398848885F846E847D848C84A4
:100690009B84AA84B984C884DF80EE80FD800C81AD
:1006A0001B81AA81D981CE0FCDBFCA2F0895A1E2A7
:1006B0001A2EAA1BBB1BFD010DC0AA1FBB1FEE1FDC
:1006C000FF1FA217B307E407F50720F0A21BB30B27
:1006D000E40BF50B661F771F881F991F1A9469F7A3
:1006E00060957095809590959B01AC01BD01CF01FF
:1006F0000895DF93CF939F92A0E49A2E0024D00117
:10070000E001F00116950795F794E794D794C79404
:10071000B794A79448F41068A20FB31FC41FD51F45
:10072000E61FF71F081E191E220F331F441F551FF7
:10073000661F771F881F991F9A9421F79D01AE01AC
:10074000BF01C00111249F90CF91DF910895F894CB
:02075000FFCFD9
:00000001FF
