:100000000EC028C027C026C025C040C123C022C0C2
:1000100021C020C01FC01EC01DC01CC01BC0112499
:100020001FBECFE5D2E0DEBFCDBF10E0A0E6B0E05E
:10003000ECE6F7E002C005900D92A036B107D9F7C3
:1000400020E0A0E6B0E001C01D92AE37B207E1F7B4
:1000500067D18AC3D5CF863008F0865087709091DB
:1000600069009295907F892B87B9369A3699FECF91
:1000700084B125B190E0922B08952FB7F894609148
:1000800065007091660080916700909168002FBFB5
:100090000895C098C298C19A0895CF92DF92EF92C6
:1000A000FF926C01EADF0D2C000CEE08FF08C60E73
:1000B000D71EE81EF91EE1DF6C157D058E059F0534
:1000C000D0F3FF90EF90DF90CF900895CF92DF9222
:1000D000EF92FF92CF93DF93CDB7DEB727970FB69E
:1000E000F894DEBF0FBECDBF29833A834B835C8378
:1000F0006D837E83C980DA800D2C000CEE08FF082A
:100100006D817E81CB01770FAA0BBB0BBC01CD01AA
:100110006C197D098E099F0924E630E040E050E02B
:100120007FD2B22FA32FF42FE52F2B813C81A90181
:10013000330F660B770B9A01AB012C193D094E0961
:100140005F096B2F7A2F8F2F9E2F4ED257FD07C03E
:10015000253631054105510524F4822F03C080E086
:1001600001C084E627960FB6F894DEBF0FBECDBF60
:10017000DF91CF91FF90EF90DF90CF900895CF93D4
:10018000DF9389E068DF89E066DFC7E7D0E0682FAA
:100190008C839D8320917700309178004091790085
:1001A00050917A0070917C0080917D008FDF8E836A
:1001B00088E051DF88E04FDFC0E7D0E0682F8C8314
:1001C0009D83209170003091710040917200509198
:1001D0007300709175008091760078DF8E83DF91D7
:1001E000CF9108951F93CF93DF93C82FD0E0CE0116
:1001F000E5D1182FCE010196E1D1282F30E0922FC2
:100200008827810F911DDF91CF911F910895EF9263
:10021000FF920F931F93CF93DF931F92CDB7DEB75B
:100220007C01FC0100811181C8016983C7D169810A
:10023000681711F0C801CAD1C7010F90DF91CF91A3
:100240001F910F91FF90EF9008950F931F93CF93FD
:10025000DF9300D01F92CDB7DEB7082F10E01A83CE
:100260000983CE0101967B83D2DF0F5F1F4F1A8374
:1002700009837B81672FCE010196C9DF0F900F9014
:100280000F90DF91CF911F910F9108951F920F92C0
:100290000FB60F9211242F933F938F939F93AF9399
:1002A000BF938091650090916600A0916700B09126
:1002B00068003091640020E3230F2D3720F440962E
:1002C000A11DB11D05C023EB230F4196A11DB11D3A
:1002D000209364008093650090936600A09367006C
:1002E000B09368008091600090916100A0916200DD
:1002F000B09163000196A11DB11D809360009093A1
:100300006100A0936200B0936300BF91AF919F9191
:100310008F913F912F910F900FBE0F901F901895C6
:10032000CF93DF9300D0CDB7DEB778948AB58260E3
:100330008ABD8AB581608ABD83B7826083BF83B777
:10034000816083BF89B7826089BF80B7826080BFC8
:100350003298319A309A379A8CB580648CBD14B734
:1003600014BE88E080936900B89ABA9AB99AC29A82
:10037000C19A85E090E022D1082F45E0E42EF12CCF
:10038000FA82E982612FCE01019641DF127001FDF0
:100390009BC0112309F4A0C025E0D22E0FEF13E07B
:1003A000EE24EA9433E0F32EC298C19884E690E0FC
:1003B00074DEC29AC19A61DE4B015C012CEB820EA5
:1003C00022E0921EA11CB11C58DE681579058A0531
:1003D0009B0590F4D4DE80917B0090917C008E157B
:1003E0009F050CF47C01809174009091750080173A
:1003F000910754F78C01E8CFDA94D110D5CFC29889
:10040000C198470183E6880E911C580123E6A20E8D
:10041000B11C80917B0090917C00881699062CF08D
:1004200084E690E03ADEABDEF4CF809174009091E8
:100430007500A816B906A4F780ED97E02EDE95E0CA
:10044000D92EA12CB12C812C912CC298C19815DEEB
:100450002B013C0124E8420E23E0521E611C711C5A
:100460000CDE641575058605970590F488DE80918D
:100470007B0090917C00881699060CF44C018091C9
:10048000740090917500A816B90654F75C01E8CF86
:10049000C29AC19A84E690E000DEDA94D110D5CFFA
:1004A000B70187E0D2DEB40189E0CFDEB8018BE08E
:1004B000CCDEB5018DE0C9DE80ED97E0EEDD85E0B4
:1004C00090E09A83898304C0112331F0FA82E98293
:1004D00061E0CE0101969BDE10926F00DADD109292
:1004E0006E0087E07FDE909378008093770089E04C
:1004F00079DE90937A00809379008BE073DE90939D
:100500007100809370008DE06DDE90937300809396
:10051000720035DE80E0E82E80E0F82E30DE80913B
:100520007D0090917600891B282F082E000C330B3C
:1005300037FF03C031952195310900916F001816DE
:1005400024F0811104C0102F03C010E001C011E09D
:1005500022303105DCF080916E00181315C08090B8
:100560006A0090906B00A0906C00B0906D0084E6E3
:10057000880E911CA11CB11C80DD86169706A8066A
:10058000B90668F4012F0BC010936E0076DD6093FE
:100590006A0070936B0080936C0090936D000093E1
:1005A0006F00011102C075DD03C0C09AC29AC198E4
:1005B000E114F10409F4B2CF23DDB0CFE199FECF0D
:1005C0009FBB8EBBE09A99278DB30895262FE199A2
:1005D000FECF1CBA9FBB8EBB2DBB0FB6F894E29A20
:1005E000E19A0FBE01960895052E97FB16F400942C
:1005F0000FD057FD05D068D007FC02D046F408C0E4
:1006000050954095309521953F4F4F4F5F4F08953E
:1006100090958095709561957F4F8F4F9F4F08956E
:1006200068940013E894A0E0B0E0E8E1F3E01DC0B6
:10063000EFEFE7F959016A015E23550FEE08FE2C32
:1006400087019B01AC019E23990F660B762FCB018E
:100650005DD0CDB7DEB7EAE024C02F923F924F9233
:100660005F926F927F928F929F92AF92BF92CF9242
:10067000DF92EF92FF920F931F93CF93DF93CDB74B
:10068000DEB7CA1BDB0B0FB6F894DEBF0FBECDBFC3
:1006900009942A88398848885F846E847D848C8494
:1006A0009B84AA84B984C884DF80EE80FD800C819D
:1006B0001B81AA81B981CE0FD11D0FB6F894DEBF80
:1006C0000FBECDBFED010895A1E21A2EAA1BBB1BE0
:1006D000FD010DC0AA1FBB1FEE1FFF1FA217B3070E
:1006E000E407F50720F0A21BB30BE40BF50B661F24
:1006F000771F881F991F1A9469F7609570958095E8
:1007000090959B01AC01BD01CF010895DF93CF937C
:100710009F92A0E49A2E0024D001E001F0011695EA
:100720000795F794E794D794C794B794A79448F49F
:100730001068A20FB31FC41FD51FE61FF71F081EA6
:10074000191E220F331F441F551F661F771F881F56
:10075000991F9A9421F79D01AE01BF01C001112498
:0C0760009F90CF91DF910895F894FFCF97
:00000001FF
