:100000000EC028C027C026C025C0F1C023C022C012
:1000100021C020C01FC01EC01DC01CC01BC0112499
:100020001FBECFE5D2E0DEBFCDBF10E0A0E6B0E05E
:10003000EEECF5E002C005900D92A036B107D9F7BD
:1000400020E0A0E6B0E001C01D92AE37B207E1F7B4
:1000500018D1BBC2D5CF863008F0865087709091FA
:1000600069009295907F892B87B9369A3699FECF91
:1000700084B125B190E0922B08952FB7F894609148
:1000800065007091660080916700909168002FBFB5
:100090000895C098C298C19A089580936F00811105
:1000A00001C0F7CFC09AC29AC1980895CF92DF924B
:1000B000EF92FF92CF93DF93CDB7DEB727970FB6BE
:1000C000F894DEBF0FBECDBF29833A834B835C8398
:1000D0006D837E83C980DA800D2C000CEE08FF084A
:1000E0006D817E81CB01770FAA0BBB0BBC01CD01CB
:1000F0006C197D098E099F0924E630E040E050E04C
:10010000C0D1B22FA32FF42FE52F2B813C81A90161
:10011000330F660B770B9A01AB012C193D094E0981
:100120005F096B2F7A2F8F2F9E2F8FD157FD07C01E
:10013000253631054105510524F4822F03C080E0A6
:1001400001C084E627960FB6F894DEBF0FBECDBF80
:10015000DF91CF91FF90EF90DF90CF900895CF93F4
:10016000DF9389E078DF89E076DFC7E7D0E0682FAA
:100170008C839D83209177003091780040917900A5
:1001800050917A0070917C0080917D008FDF8E838A
:1001900088E061DF88E05FDFC0E7D0E0682F8C8314
:1001A0009D832091700030917100409172005091B8
:1001B0007300709175008091760078DF8E83DF91F7
:1001C000CF9108951F93CF93DF93C82FD0E0CE0136
:1001D00026D1182FCE01019622D1282F30E0922F60
:1001E0008827810F911DDF91CF911F9108951F9254
:1001F0000F920FB60F9211242F933F938F939F93DB
:10020000AF93BF938091650090916600A0916700C5
:10021000B09168003091640020E3230F2D3720F463
:100220004096A11DB11D05C023EB230F4196A11DD2
:10023000B11D209364008093650090936600A093A5
:100240006700B09368008091600090916100A09178
:100250006200B09163000196A11DB11D8093600002
:1002600090936100A0936200B0936300BF91AF913F
:100270009F918F913F912F910F900FBE0F901F90E4
:10028000189578948AB582608ABD8AB581608ABDE6
:1002900083B7826083BF83B7816083BF89B7826081
:1002A00089BF80B7826080BF3298319A309A379A7E
:1002B0008CB580648CBDC4B714BE88E0809369009F
:1002C000B89ABA9AB99AC29AC19A85E090E0A7D032
:1002D000D82F85E090E0A3D0C81721F06C2F85E0DF
:1002E00090E0A5D0C270D1FD26C0CC2379F1C5DE47
:1002F0006B017C0120EAC20E2FE0D21EE11CF11C32
:10030000BCDE6C157D058E059F05D0F310926F0045
:10031000C0DEB3DE6B017C0120EAC20E2FE0D21EEC
:10032000E11CF11CAADE6C157D058E059F05D0F33E
:1003300081E0B3DEDCCFCC2349F085E090E06FD0E4
:10034000813021F061E085E090E071D010926F0083
:10035000A0DE10926E0087E035DF909378008093E6
:10036000770089E02FDF90937A00809379008BE00B
:1003700029DF90937100809370008DE023DF9093CC
:10038000730080937200EBDE00E010E0E8DE9091F5
:100390007D0080917600981B292F092E000C330BCD
:1003A00037FF03C0319521953109D0916F0019169F
:1003B00024F0911104C0CD2F03C0C0E001C0C1E002
:1003C00022303105DCF080916E00C81315C0C0905A
:1003D0006A00D0906B00E0906C00F0906D0084E6B5
:1003E000C80ED11CE11CF11C48DEC616D706E80673
:1003F000F90668F4DC2F0BC0C0936E003EDE6093FC
:100400006A0070936B0080936C0090936D008D2F49
:1004100044DE0115110509F4B9CFF2DDB7CFE1993A
:10042000FECF9FBB8EBBE09A99278DB30895262FF0
:10043000E199FECF1CBA9FBB8EBB2DBB0FB6F894C3
:10044000E29AE19A0FBE01960895052E97FB16F4E5
:1004500000940FD057FD05D068D007FC02D046F4B9
:1004600008C050954095309521953F4F4F4F5F4FB5
:10047000089590958095709561957F4F8F4F9F4F10
:10048000089568940013E894A0E0B0E0E9E4F2E095
:100490001DC0EFEFE7F959016A015E23550FEE0821
:1004A000FE2C87019B01AC019E23990F660B762FD2
:1004B000CB015DD0CDB7DEB7EAE024C02F923F92EA
:1004C0004F925F926F927F928F929F92AF92BF9264
:1004D000CF92DF92EF92FF920F931F93CF93DF9310
:1004E000CDB7DEB7CA1BDB0B0FB6F894DEBF0FBE6D
:1004F000CDBF09942A88398848885F846E847D84BA
:100500008C849B84AA84B984C884DF80EE80FD80BB
:100510000C811B81AA81B981CE0FD11D0FB6F89431
:10052000DEBF0FBECDBFED010895A1E21A2EAA1BBA
:10053000BB1BFD010DC0AA1FBB1FEE1FFF1FA21793
:10054000B307E407F50720F0A21BB30BE40BF50B90
:10055000661F771F881F991F1A9469F76095709519
:10056000809590959B01AC01BD01CF010895DF936B
:10057000CF939F92A0E49A2E0024D001E001F001D5
:1005800016950795F794E794D794C794B794A794D2
:1005900048F41068A20FB31FC41FD51FE61FF71F32
:1005A000081E191E220F331F441F551F661F771F79
:1005B000881F991F9A9421F79D01AE01BF01C001C8
:0E05C00011249F90CF91DF910895F894FFCF02
:00000001FF
