:100000000EC026C025C024C023C0E7C021C020C028
:100010001FC01EC01DC01CC01BC01AC019C01124A7
:100020001FBECFEDCDBF10E0A0E6B0E0E6EAF5E000
:1000300002C005900D92A036B107D9F720E0A0E6E6
:10004000B0E001C01D92AE37B207E1F710D1A9C2EE
:10005000D7CF863008F086508770909169009295CE
:10006000907F892B87B9369A3699FECF84B125B116
:1000700090E0922B08952FB7F894609165007091ED
:10008000660080916700909168002FBF0895C09826
:10009000C298C19A089580936F00811101C0F7CF73
:1000A000C09AC29AC1980895CF92DF92EF92FF92C0
:1000B000CF93DF93CDB7DD27C750CDBF29833A83D8
:1000C0004B835C836D837E83C980DA800D2C000CAA
:1000D000EE08FF086D817E81CB01770FAA0BBB0B69
:1000E000BC01CD016C197D098E099F0924E630E021
:1000F00040E050E0BCD1B22FA32FF42FE52F2B818D
:100100003C81A901330F660B770B9A01AB012C19C7
:100110003D094E095F096B2F7A2F8F2F9E2F8BD1B0
:1001200057FD07C0253631054105510524F4822FBE
:1001300003C080E001C084E6C95FCDBFDF91CF91ED
:10014000FF90EF90DF90CF900895CF93DF9389E0F9
:1001500080DF89E07EDFC7E7D0E0682F8C839D8356
:1001600020917700309178004091790050917A0089
:1001700070917C0080917D0097DF8E8388E069DF3D
:1001800088E067DFC0E7D0E0682F8C839D832091F3
:100190007000309171004091720050917300709125
:1001A00075008091760080DF8E83DF91CF91089576
:1001B0001F93CF93DF93C82FD0E0CE0126D1182F05
:1001C000CE01019622D1282F30E0922F8827810F6F
:1001D000911DDF91CF911F9108951F920F920FB63D
:1001E0000F9211242F933F938F939F93AF93BF93BD
:1001F0008091650090916600A0916700B0916800C1
:100200003091640020E3230F2D3720F44096A11D88
:10021000B11D05C023EB230F4196A11DB11D2093F5
:1002200064008093650090936600A0936700B0938C
:1002300068008091600090916100A0916200B0918F
:1002400063000196A11DB11D809360009093610031
:10025000A0936200B0936300BF91AF919F918F9183
:100260003F912F910F900FBE0F901F90189578948B
:100270008AB582608ABD8AB581608ABD83B7826093
:1002800083BF83B7816083BF89B7826089BF80B72E
:10029000826080BF3298319A309A379A8CB58064E8
:1002A0008CBDC4B714BE88E080936900B89ABA9A2E
:1002B000B99AC29AC19A85E090E0A7D0D82F85E07C
:1002C00090E0A3D0C81721F06C2F85E090E0A5D076
:1002D000C270D1FD26C0CC2379F1CDDE6B017C014B
:1002E00020EAC20E2FE0D21EE11CF11CC4DE6C1508
:1002F0007D058E059F05D0F310926F00C8DEBBDE32
:100300006B017C0120EAC20E2FE0D21EE11CF11C21
:10031000B2DE6C157D058E059F05D0F381E0BBDE56
:10032000DCCFCC2349F085E090E06FD0813021F024
:1003300061E085E090E071D010926F00A8DE10922D
:100340006E0087E035DF909378008093770089E036
:100350002FDF90937A00809379008BE029DF9093D0
:100360007100809370008DE023DF90937300809381
:100370007200EBDE00E010E0E8DE90917D008091FD
:100380007600981B292F092E000C330B37FF03C072
:10039000319521953109D0916F00191624F09111F2
:1003A00004C0CD2F03C0C0E001C0C1E02230310540
:1003B000DCF080916E00C81315C0C0906A00D09028
:1003C0006B00E0906C00F0906D0084E6C80ED11CCC
:1003D000E11CF11C50DEC616D706E806F90668F4E3
:1003E000DC2F0BC0C0936E0046DE60936A007093F2
:1003F0006B0080936C0090936D008D2F4CDE011587
:10040000110509F4B9CFFCDDB7CFE199FECF1FBAD2
:100410008EBBE09A99278DB30895262FE199FECFE0
:100420001CBA1FBA8EBB2DBB0FB6F894E29AE19AA4
:100430000FBE01960895052E97FB16F400940FD079
:1004400057FD05D05ED007FC02D046F408C0509599
:100450004095309521953F4F4F4F5F4F08959095B0
:100460008095709561957F4F8F4F9F4F0895689449
:100470000013E894A0E0B0E0EFE3F2E01DC0EFEF7E
:10048000E7F959016A015E23550FEE08FE2C87013A
:100490009B01AC019E23990F660B762FCB0153D0A5
:1004A000CDB7DD27EAE01FC02F923F924F925F92B7
:1004B0006F927F928F929F92AF92BF92CF92DF9274
:1004C000EF92FF920F931F93CF93DF93CDB7CA1B89
:1004D000CDBFDD2709942A88398848885F846E84D7
:1004E0007D848C849B84AA84B984C884DF80EE8058
:1004F000FD800C811B81AA81D981CE0FCDBFCA2F6F
:100500000895A1E21A2EAA1BBB1BFD010DC0AA1F54
:10051000BB1FEE1FFF1FA217B307E407F50720F06C
:10052000A21BB30BE40BF50B661F771F881F991FE7
:100530001A9469F760957095809590959B01AC0130
:10054000BD01CF010895DF93CF939F92A0E49A2E2F
:100550000024D001E001F00116950795F794E79487
:10056000D794C794B794A79448F41068A20FB31F08
:10057000C41FD51FE61FF71F081E191E220F331FA9
:10058000441F551F661F771F881F991F9A9421F7D4
:100590009D01AE01BF01C00111249F90CF91DF9159
:0605A0000895F894FFCF5E
:00000001FF
